{
  "contractName": "Identity",
  "abi": [
    {
      "constant": true,
      "inputs": [],
      "name": "enabled",
      "outputs": [
        {
          "name": "",
          "type": "bool"
        }
      ],
      "payable": false,
      "stateMutability": "view",
      "type": "function"
    },
    {
      "inputs": [],
      "payable": false,
      "stateMutability": "nonpayable",
      "type": "constructor"
    },
    {
      "anonymous": false,
      "inputs": [
        {
          "indexed": false,
          "name": "who",
          "type": "address"
        },
        {
          "indexed": false,
          "name": "identity",
          "type": "string"
        }
      ],
      "name": "NewIdentity",
      "type": "event"
    },
    {
      "anonymous": false,
      "inputs": [
        {
          "indexed": false,
          "name": "who",
          "type": "address"
        },
        {
          "indexed": false,
          "name": "identity",
          "type": "string"
        }
      ],
      "name": "UpdateIdentity",
      "type": "event"
    },
    {
      "anonymous": false,
      "inputs": [
        {
          "indexed": false,
          "name": "who",
          "type": "address"
        }
      ],
      "name": "RemoveIdentity",
      "type": "event"
    },
    {
      "constant": false,
      "inputs": [
        {
          "name": "content",
          "type": "string"
        }
      ],
      "name": "register",
      "outputs": [],
      "payable": true,
      "stateMutability": "payable",
      "type": "function"
    },
    {
      "constant": false,
      "inputs": [],
      "name": "remove",
      "outputs": [],
      "payable": true,
      "stateMutability": "payable",
      "type": "function"
    },
    {
      "constant": true,
      "inputs": [
        {
          "name": "addr",
          "type": "address"
        }
      ],
      "name": "get",
      "outputs": [
        {
          "name": "",
          "type": "string"
        }
      ],
      "payable": false,
      "stateMutability": "view",
      "type": "function"
    },
    {
      "constant": true,
      "inputs": [],
      "name": "count",
      "outputs": [
        {
          "name": "",
          "type": "uint256"
        }
      ],
      "payable": false,
      "stateMutability": "view",
      "type": "function"
    },
    {
      "constant": false,
      "inputs": [],
      "name": "enableContract",
      "outputs": [],
      "payable": false,
      "stateMutability": "nonpayable",
      "type": "function"
    },
    {
      "constant": false,
      "inputs": [],
      "name": "disableContract",
      "outputs": [],
      "payable": false,
      "stateMutability": "nonpayable",
      "type": "function"
    }
  ],
  "bytecode": "0x60806040526001600060146101000a81548160ff021916908315150217905550600060055534801561003057600080fd5b50336000806101000a81548173ffffffffffffffffffffffffffffffffffffffff021916908373ffffffffffffffffffffffffffffffffffffffff160217905550610c7e806100806000396000f300608060405260043610610083576000357c0100000000000000000000000000000000000000000000000000000000900463ffffffff16806306661abd14610088578063238dafe0146100b3578063367edd32146100e2578063894ba833146100f9578063a7f4377914610110578063c2bc2efc1461011a578063f2c298be146101d6575b600080fd5b34801561009457600080fd5b5061009d610232565b6040518082815260200191505060405180910390f35b3480156100bf57600080fd5b506100c861023c565b604051808215151515815260200191505060405180910390f35b3480156100ee57600080fd5b506100f761024f565b005b34801561010557600080fd5b5061010e6102c7565b005b61011861033e565b005b34801561012657600080fd5b5061015b600480360381019080803573ffffffffffffffffffffffffffffffffffffffff169060200190929190505050610403565b6040518080602001828103825283818151815260200191508051906020019080838360005b8381101561019b578082015181840152602081019050610180565b50505050905090810190601f1680156101c85780820380516001836020036101000a031916815260200191505b509250505060405180910390f35b610230600480360381019080803590602001908201803590602001908080601f0160208091040260200160405190810160405280939291908181526020018383808284378201915050505050509192919290505050610503565b005b6000600554905090565b600060149054906101000a900460ff1681565b6000809054906101000a900473ffffffffffffffffffffffffffffffffffffffff1673ffffffffffffffffffffffffffffffffffffffff163373ffffffffffffffffffffffffffffffffffffffff161415156102aa57600080fd5b6001600060146101000a81548160ff021916908315150217905550565b6000809054906101000a900473ffffffffffffffffffffffffffffffffffffffff1673ffffffffffffffffffffffffffffffffffffffff163373ffffffffffffffffffffffffffffffffffffffff1614151561032257600080fd5b60008060146101000a81548160ff021916908315150217905550565b600060149054906101000a900460ff16151561035957600080fd5b61036d33600161075b90919063ffffffff16565b151561037857600080fd5b61038c3360016107b490919063ffffffff16565b5060016005600082825403925050819055507fbf872b0739f3bc6313ee30ed542a610dfcb6141e0e7f49ccc2ea8eeaa1735e8a33604051808273ffffffffffffffffffffffffffffffffffffffff1673ffffffffffffffffffffffffffffffffffffffff16815260200191505060405180910390a1565b606061041982600161075b90919063ffffffff16565b151561042457600080fd5b600460008373ffffffffffffffffffffffffffffffffffffffff1673ffffffffffffffffffffffffffffffffffffffff1681526020019081526020016000208054600181600116156101000203166002900480601f0160208091040260200160405190810160405280929190818152602001828054600181600116156101000203166002900480156104f75780601f106104cc576101008083540402835291602001916104f7565b820191906000526020600020905b8154815290600101906020018083116104da57829003601f168201915b50505050509050919050565b600060149054906101000a900460ff16151561051e57600080fd5b80600460003373ffffffffffffffffffffffffffffffffffffffff1673ffffffffffffffffffffffffffffffffffffffff1681526020019081526020016000209080519060200190610571929190610b81565b5061058633600161075b90919063ffffffff16565b1515610687576105a0336001610a0890919063ffffffff16565b5060016005600082825401925050819055507fb43d84571ed93e552eba32d34b9bdb8da1e8cda0af378c8c5b413705c00f5a583382604051808373ffffffffffffffffffffffffffffffffffffffff1673ffffffffffffffffffffffffffffffffffffffff16815260200180602001828103825283818151815260200191508051906020019080838360005b8381101561064757808201518184015260208101905061062c565b50505050905090810190601f1680156106745780820380516001836020036101000a031916815260200191505b50935050505060405180910390a1610758565b7f4d9aa4761c45cac26a1fd345f602649a95c61b251013baf7d61d1ae105bd9a953382604051808373ffffffffffffffffffffffffffffffffffffffff1673ffffffffffffffffffffffffffffffffffffffff16815260200180602001828103825283818151815260200191508051906020019080838360005b8381101561071c578082015181840152602081019050610701565b50505050905090810190601f1680156107495780820380516001836020036101000a031916815260200191505b50935050505060405180910390a15b50565b60008260000160008373ffffffffffffffffffffffffffffffffffffffff1673ffffffffffffffffffffffffffffffffffffffff16815260200190815260200160002060009054906101000a900460ff16905092915050565b6000806000808560000160008673ffffffffffffffffffffffffffffffffffffffff1673ffffffffffffffffffffffffffffffffffffffff16815260200190815260200160002060009054906101000a900460ff16151561081857600093506109ff565b60008660000160008773ffffffffffffffffffffffffffffffffffffffff1673ffffffffffffffffffffffffffffffffffffffff16815260200190815260200160002060006101000a81548160ff021916908315150217905550856002018054905092508560010160008673ffffffffffffffffffffffffffffffffffffffff1673ffffffffffffffffffffffffffffffffffffffff16815260200190815260200160002054915085600201600184038154811015156108d457fe5b9060005260206000200160009054906101000a900473ffffffffffffffffffffffffffffffffffffffff16905080866002018381548110151561091357fe5b9060005260206000200160006101000a81548173ffffffffffffffffffffffffffffffffffffffff021916908373ffffffffffffffffffffffffffffffffffffffff160217905550818660010160008373ffffffffffffffffffffffffffffffffffffffff1673ffffffffffffffffffffffffffffffffffffffff1681526020019081526020016000208190555085600201600184038154811015156109b557fe5b9060005260206000200160006101000a81549073ffffffffffffffffffffffffffffffffffffffff0219169055856002018054809190600190036109f99190610c01565b50600193505b50505092915050565b60008260000160008373ffffffffffffffffffffffffffffffffffffffff1673ffffffffffffffffffffffffffffffffffffffff16815260200190815260200160002060009054906101000a900460ff1615610a675760009050610b7b565b60018360000160008473ffffffffffffffffffffffffffffffffffffffff1673ffffffffffffffffffffffffffffffffffffffff16815260200190815260200160002060006101000a81548160ff02191690831515021790555082600201805490508360010160008473ffffffffffffffffffffffffffffffffffffffff1673ffffffffffffffffffffffffffffffffffffffff16815260200190815260200160002081905550826002018290806001815401808255809150509060018203906000526020600020016000909192909190916101000a81548173ffffffffffffffffffffffffffffffffffffffff021916908373ffffffffffffffffffffffffffffffffffffffff16021790555050600190505b92915050565b828054600181600116156101000203166002900490600052602060002090601f016020900481019282601f10610bc257805160ff1916838001178555610bf0565b82800160010185558215610bf0579182015b82811115610bef578251825591602001919060010190610bd4565b5b509050610bfd9190610c2d565b5090565b815481835581811115610c2857818360005260206000209182019101610c279190610c2d565b5b505050565b610c4f91905b80821115610c4b576000816000905550600101610c33565b5090565b905600a165627a7a7230582049cf29e5e763440b57ee0cf537a0d30379560dd70432d7b34312ac9f6024e9870029",
  "source": "\npragma solidity ^0.4.24;\n\nimport \"./lib/safeMath.sol\";\nimport \"./lib/set.sol\";\n\ncontract Identity {\n    using Set for Set.Data;\n    using SafeMath for uint256;\n\n    address owner; // owner has permissions to modify parameters\n    bool public enabled = true; // if upgrade contract, then the old contract should be disabled\n\n    Set.Data private users; // users\n    mapping (address => string) private identities; // identities\n    uint256 _count = 0; // users _count\n\n    event NewIdentity(address who, string identity);\n    event UpdateIdentity(address who, string identity);\n    event RemoveIdentity(address who);\n\n    modifier onlyOwner() {require(msg.sender == owner);_;}\n    modifier onlyEnabled() {require(enabled);_;}\n\n    constructor () public {\n        owner = msg.sender;\n    }\n\n    function register(string content) public payable onlyEnabled {\n        identities[msg.sender] = content;\n        if (!users.contains(msg.sender)) {\n            users.insert(msg.sender);\n            _count += 1;\n            emit NewIdentity(msg.sender, content);\n        } else {\n            emit UpdateIdentity(msg.sender, content);\n        }\n    }\n\n    function remove() public payable onlyEnabled {\n        require(users.contains(msg.sender));\n        users.remove(msg.sender);\n        _count -= 1;\n        emit RemoveIdentity(msg.sender);\n    }\n\n    function get(address addr) public view returns (string) {\n        require(users.contains(addr));\n        return identities[addr];\n    }\n\n    function count() public view returns (uint256) {\n        return _count;\n    }\n\n    // owner can enable and disable rnode contract\n    function enableContract() public onlyOwner {\n        enabled = true;\n    }\n\n    function disableContract() public onlyOwner {\n        enabled = false;\n    }\n}\n",
  "sourcePath": "/Users/liaojinlong/Workspace/CPChain/cpchain-dapps-identity/contracts/Identity.sol",
  "compiler": {
    "name": "solc",
    "version": "0.4.25+commit.59dbf8f1.Linux.g++"
  },
  "schemaVersion": "3.4.3",
  "updatedAt": "2021-12-15T09:29:05.516Z",
  "devdoc": {
    "methods": {}
  },
  "userdoc": {
    "methods": {}
  }
}